:100000000C943B000C9458000C9458000C9458002D
:100010000C9458000C9458000C9458000C94580000
:100020000C9458000C9458000C9458000C94DF0267
:100030000C9458000C9458000C9458000C945800E0
:100040000C9458000C9458000C9458000C945800D0
:100050000C9458000C945D030C9458000C945800B8
:100060000C9458000C94580091029B02A502AF0218
:10007000B902C302CD0211241FBECFEFD8E0DEBF0C
:10008000CDBF11E0A0E0B1E0E8E9F4E102C00590E5
:100090000D92A032B107D9F721E0A0E2B1E001C092
:1000A0001D92A534B207E1F70E94E0050C944A0ABC
:1000B0000C940000CF93DF93869F9001879F300DB3
:1000C000969F300D1124A0910001B0910101E091A3
:1000D0002001F09121012115310519F44F5F5F4F87
:1000E00029C0E901CA1BDB0BDE01EC01CE1BDF0BD3
:1000F000FE01BB2324F06A3071053CF417C01A16C8
:100100001B0664F46A3071054CF41E161F061CF4BD
:10011000415051090FC04F5F5F4F0CC0FF231CF0CF
:100120004F5F5F4F07C04150510904C01A161B06AC
:1001300064F3F4CF309301012093000190932101E7
:1001400080932001CA01DF91CF910895EF92FF9231
:100150000F931F9329988017910754F06739710501
:1001600024F4299A80E090E00EC0C70101970BC0EB
:10017000683873411CF0C701019705C0B901CA0175
:10018000A7010E945A001F910F91FF90EF900895D0
:10019000ECE7F0E080818F7D8083808180648083C4
:1001A000AAE7B0E08C918F688C9383E080937E0007
:1001B0008081816080838C9182648C9308958AB160
:1001C00088628AB923E224BD99E095BD8FE787BD97
:1001D00018BC2093B0009093B1008093B3001092AC
:1001E000B40016BC86E08093B200089584B18760A5
:1001F00084B985B1887F85B9E1E8F0E080818D60C0
:10020000808383E39FE09093890080938800EFE6EA
:10021000F0E0808182608083089554985C9A85B173
:10022000877D85B985B1886285B908951092C5002A
:1002300080E18093C40086E08093C20088E08093D0
:10024000C1000895CF92DF92EF92FF920F931F9318
:10025000CF93DF93DC016A0184E690E042E00FC0B7
:1002600021503109E9F73196E436F10519F02AEE0B
:1002700036E0F6CF25B1242725B9019799F0E0E0C3
:10028000F0E0F5CF85B1842785B980E090E007C024
:1002900021503109E9F701968931910521F02AEEC3
:1002A00036E0F6CF42E08D919C91119789389341C9
:1002B0004CF3299880E090E008C021503109E9F71B
:1002C0000196883E33E0930719F02AEE36E0F5CF29
:1002D0004C9909C08D919C91883293426CF482E0D4
:1002E0000E948702FFCF8D919C918932934234F016
:1002F00082E00E948702FFCF53E001C052E0F894F1
:10030000052F10E0D801AA0FBB1F1196E0E0F0E026
:1003100090E06894EE24E1F86894FF24F2F84AE053
:1003200034C021503109E9F72196C43F21E0D207BA
:1003300019F02AEE36E0F5CF5330A9F4EB0128810D
:100340003981293B3B405CF0E60128813981293B1A
:100350003B402CF085B18F2585B9942F12C085B113
:100360008E2585B90EC0EB0128813981293B3B40A0
:100370002CF085B18F2585B9942F03C025B12E258A
:1003800025B93196EA17FB0718F4C0E0D0E0D1CFC9
:10039000789425B1297F25B99801290F311DC9010C
:1003A000DF91CF911F910F91FF90EF90DF90CF9051
:1003B00008959C01ADECBCEC0E94D10996958795FF
:1003C000969587959093400180933F010895809181
:1003D0003F0190914001880F991F20912601309193
:1003E000270128173907B8F495B184E0892785B922
:1003F0008091260190912701019690932701809387
:100400002601809128019091290181609093290112
:100410008093280108952A9880913F01909140018E
:1004200020912601309127010296880F991F2817E5
:10043000390798F080912801909129018E7F9927A2
:10044000909329018093280180912801909129019E
:10045000109227011092260108952F5F3F4F30938D
:10046000270120932601089580913D0190913E013E
:100470002091240130912501880F991F28173907F1
:10048000B8F495B181E0892785B9809124019091D4
:1004900025010196909325018093240180912801E4
:1004A00090912901826090932901809328010895F9
:1004B0002F5F3F4F3093250120932401289880918E
:1004C0003D0190913E012091240130912501029639
:1004D000880F991F2817390798F08091280190916B
:1004E00029018D7F9927909329018093280180917C
:1004F000280190912901109225011092240108955C
:100500002F5F3F4F3093250120932401089590E001
:100510008730910508F04AC0FC01EC5CFF4F0C9459
:10052000CB0980912201909123018E7F909323012A
:10053000809322013BC08091220190912301816030
:10054000909323018093220131C0809122019091E8
:1005500023018260909323018093220127C0809120
:1005600022019091230184609093230180932201C2
:100570001DC08091220190912301886090932301F6
:100580008093220113C08091220190912301806108
:10059000909323018093220109C0809122019091C0
:1005A0002301806290932301809322018091220194
:1005B0009091230190933E0180933D0108951F92F5
:1005C0000F920FB60F9211242F933F934F935F9387
:1005D0006F937F938F939F93AF93BF93EF93FF930B
:1005E0000E94E7010E94340283E39FE09093890018
:1005F00080938800809104018F5F80930401FF91B4
:10060000EF91BF91AF919F918F917F916F915F918A
:100610004F913F912F910F900FBE0F901F90189503
:10062000CF93DF93CDB7DEB768970FB6F894DEBFF0
:100630000FBECDBF28E1E7E0F1E0DE0111960190A9
:100640000D922A95E1F74AE050E0BE016F5F7F4FBF
:100650000E94F40999819923A1F020E0E0ECF0E0F8
:1006600046EC50E0808185FFFDCFDA019C932F5F3F
:10067000A1E0B0E0AC0FBD1FA20FB11D9C91911184
:10068000F1CFE0ECF0E0808185FFFDCF89E0809341
:10069000C60068960FB6F894DEBF0FBECDBFDF91DF
:1006A000CF9108950E941003E0ECF0E0808185FF77
:1006B000FDCF8AE08093C60008951F920F920FB677
:1006C0000F9211240F931F932F933F934F935F9398
:1006D0006F937F938F939F93AF93BF93EF93FF930A
:1006E00080917800909179008C3F934080F08091C8
:1006F0007C00813461F085E00E94870218BC109272
:10070000B40080917C0090E00E9452030EC1809161
:100710007C00823479F038F4803409F47AC0813472
:1007200009F4B5C0ECC08434F1F130F1853409F43A
:1007300052C0E5C0A0917800B091790020914201AB
:1007400030E00E94D1092AE030E040E050E00E9411
:10075000A90930933C0120933B01283C324344F0EB
:100760001092B40084E690E090930301809302011C
:1007700083E480937C00CBC0A0917800B091790095
:100780002091440130E00E94D1092AE030E040E0AD
:1007900050E00E94A909309338012093370184E486
:1007A00080937C00B4C0609178007091790080E003
:1007B00090E00E949A082AE939E949EF50E40E9442
:1007C00028090E94640870933A016093390185E416
:1007D00080937C009CC0609178007091790080E0EB
:1007E00090E00E949A0822EA35E448E051E40E9431
:1007F000280920E030E048EC52E40E94F2070E9411
:100800006408709336016093350182E480937C0024
:100810007EC082E480937C00A0917800B091790042
:100820002091430130E00E94D1092AE030E040E00D
:1008300050E00E94A9096091330170913401CB010D
:10084000072E000CAA0BBB0B89019A01081B190B80
:100850002A0B3B0BC80199232CF010933201009313
:10086000310104C0109232011092310180913B019C
:1008700090913C01861B970B209131013091320100
:10088000821B930B9093300180932F0140C0809185
:1008900078009091790040914101489F9001499FD3
:1008A000300D1124ADECBCEC0E94D10996958795D2
:1008B000969587959695879590933401809333010B
:1008C00080910501909106018C50904384309041B5
:1008D00020F480E480937C001AC082E480937C0042
:1008E00080913B0190913C01209133013091340182
:1008F000821B930B909332018093310108C0ECE787
:10090000F0E080818564808384E00E94870280918A
:100910000401843128F081E480937C00109204016A
:10092000EAE7F0E0808180648083FF91EF91BF91DE
:10093000AF919F918F917F916F915F914F913F9177
:100940002F911F910F910F900FBE0F901F90189530
:10095000CF92DF92EF92FF920F931F93CF93DF938B
:100960001B997DC07894299A82E38093420110926A
:10097000440120E03AEF06C00197F1F72150310918
:1009800009F443C084E190E0F7CF209142012F5F4A
:1009900020934201209137013091380120313742B4
:1009A0008CF08C0115C0AC01405157429801205188
:1009B0003742421753073CF42091420121502093C3
:1009C000420101C08C01209144012F5F209344011A
:1009D00020E03AEF21503109E9F70E94100380919D
:1009E000420190E00E9410038091370190913801FC
:1009F0000E9410038091440190E00E94520388817C
:100A000085FFFDCFF701D0820BC0C0ECD0E00F2EE8
:100A1000F6ECEF2EF12CF02D0F2EFAE0DF2EF02D5C
:100A200080913B0190913C018031F7E29F070CF4EB
:100A3000ACCF2091370130913801203137420CF48E
:100A4000B2CF6091420181E090E00E943C0A609147
:100A5000440183E090E00E943C0A289AFECF1D9951
:100A6000A6C083E090E090938900809388007894FA
:100A70002A9A8EE1809341018093430140E05AEF2E
:100A800023E109C02A9A209304010197D9F7415024
:100A9000510909F456C084E190E0F4CF80914101FE
:100AA0008F5F8093410180913101909132018E0DD1
:100AB0009F1D803A9F409CF40DC0605A7F40C70143
:100AC000805A9F40861797072CF4809141018150EE
:100AD00080934101809143018F5F8093430120E027
:100AE0003AEF08C02A9AC09304010197D9F7215020
:100AF000310919F08AE090E0F5CF809133019091AF
:100B000034010E9410038091410190E00E94100383
:100B10002091310130913201809133019091340163
:100B2000820F931F0E9410038091430190E00E9466
:100B30005203F801808185FFFCCFF601D083B70115
:100B400009C0CFEF00EC10E00F2EF6ECCF2ED12C29
:100B5000F02DDAE0E0903301F0903401F0EAEF1686
:100B6000FFE0FF060CF49ACF8091310190913201A1
:100B70009701280F391F203A3F400CF49ECF805A2E
:100B80009F408036904F2CF4809143018150809398
:100B900043016091410185E090E00E943C0A609130
:100BA000430187E090E00E943C0A289AFECFDF9143
:100BB000CF911F910F91FF90EF90DF90CF9008950C
:100BC00083E090E00E94340A8093440185E090E045
:100BD0000E94340A8093410187E090E00E94340A29
:100BE0008093430183E98093420120E030E007C015
:100BF0000197F1F72F5F3F4F2436310519F08AEE48
:100C000096E0F6CF0E9416010E940D010E94F600A8
:100C10000E94C8000E94A8040E94DF00789441E36B
:100C200051E063E371E08BE391E00E9422018330A5
:100C3000910581F01CF4029739F01FC08C309105AA
:100C400079F00D97A1F019C082E080932B011092EA
:100C50002A0113C083E080932B0110922A010DC05A
:100C600082E080932B0181E080932A0106C083E01B
:100C700080932B0181E080932A0140912B0124E095
:100C800030E1429FC001439F900D112490930601D3
:100C900080930501C4E6D0E00F2EFBE77F2EF02DF8
:100CA0000F2EF2ED8F2E912CF02D0F2EF4EBAF2E98
:100CB000B12CF02DFDC08091390190913A01BE0117
:100CC0000E9495099B0180913B0190913C01BE01DE
:100CD0000E949509269FC001279F900D369F900D79
:100CE0001124BE010E949509CB010E94D901C09038
:100CF0003701D0903801E0900201F090030100919B
:100D00000501109106012091350130913601609165
:100D1000390170913A01E0913B01F0913C018091E1
:100D20002D0190912E01A6018E0F9F1F0E94A600FB
:100D3000909303018093020129EBC2162BE0D206A7
:100D400044F4109203011092020181E00E94870294
:100D500003C080E00E94870280910201909103010C
:100D6000823D910564F0909203018092020180918E
:100D70003B0190913C01883C9243CCF426C018166C
:100D8000190674F0109203011092020180913B0148
:100D900090913C01883C924354F480E090E017C06D
:100DA00080913B0190913C01883C92433CF0109231
:100DB00003011092020180E090E009C080910201DD
:100DC000909103018C37910514F078BC01C088BD67
:100DD00080910201909103018937910524F0885791
:100DE000F501808302C0F5011082809104018A30F0
:100DF00009F04EC080912A01882309F47EC08091B9
:100E00002B01833029F520913301309134018091F9
:100E1000310190913201821793076CF440912F01B8
:100E200050913001421753070CF04CC04817590736
:100E30000CF488C067C040912F01509130014817D1
:100E400059070CF03FC0421753070CF4B3C092C0CF
:100E50002091330130913401809131019091320120
:100E6000821793070CF44EC085C083E00E9487026E
:100E70000FC083E00E9487020BC083E00E948702BC
:100E800007C083E00E94870203C083E00E948702BC
:100E900080913B0190913C010E94100380913901A7
:100EA00090913A010E94520380E09AEF0197F1F786
:100EB00080912C01882309F4FECEE4EBF0E018BC0D
:100EC0001082FDCF60912B0120912F0130913001D4
:100ED000629FA001639F500D112460913B017091AE
:100EE0003C01461B570B50932E0140932D01281BAC
:100EF000390B293C310564F2C8CF10922E011092B3
:100F00002D01C6CF40912B01809133019091340186
:100F1000489F9001499F300D112440913B01509111
:100F20003C01241B350B30932E0120932D01209181
:100F3000310130913201821B930B893C91050CF4F5
:100F4000A7CF93CF60912B01629FC001639F900D4B
:100F5000112460913B0170913C01861B970B90938B
:100F60002E0180932D01241B350B293C31050CF4F7
:100F70008FCF7FCF40912B01809131019091320131
:100F8000489F9001499F300D112440913B015091A1
:100F90003C01241B350B30932E0120932D01209111
:100FA000330130913401821B930B893C91050CF481
:100FB0006FCF63CF60912B01689F9001699F300DC7
:100FC000112460913B0170913C01261B370B30933B
:100FD0002E0120932D01841B950B893C91050CF467
:100FE00057CF4FCF0E9406080C94EE080E94E708E6
:100FF00058F00E94E00840F029F45F3F29F00C947B
:10100000D70851110C9422090C94DD080E94FF08A6
:1010100068F39923B1F3552391F3951B550BBB2727
:10102000AA2762177307840738F09F5F5F4F220F6C
:10103000331F441FAA1FA9F335D00E2E3AF0E0E863
:1010400032D091505040E695001CCAF72BD0FE2FAD
:1010500029D0660F771F881FBB1F26173707480741
:10106000AB07B0E809F0BB0B802DBF01FF279358F9
:101070005F4F3AF09E3F510578F00C94D7080C94DE
:1010800022095F3FE4F3983ED4F386957795679500
:10109000B795F7959F5FC9F7880F911D969587952E
:1010A00097F90895E1E0660F771F881FBB1F62174D
:1010B00073078407BA0720F0621B730B840BBA0B0B
:1010C000EE1F88F7E09508950E946B086894B111AF
:1010D0000C94220908950E94070988F09F5798F000
:1010E000B92F9927B751B0F0E1F0660F771F881F2D
:1010F000991F1AF0BA95C9F714C0B13091F00E9447
:101100002109B1E008950C942109672F782F8827D1
:10111000B85F39F0B93FCCF3869577956795B3956D
:10112000D9F73EF490958095709561957F4F8F4FDC
:101130009F4F0895E89409C097FB3EF490958095E1
:10114000709561957F4F8F4F9F4F9923A9F0F92F8D
:1011500096E9BB279395F695879577956795B7950B
:10116000F111F8CFFAF4BB0F11F460FF1BC06F5FF1
:101170007F4F8F4F9F4F16C0882311F096E911C003
:10118000772321F09EE8872F762F05C0662371F024
:1011900096E8862F70E060E02AF09A95660F771F38
:1011A000881FDAF7880F9695879597F9089597F92C
:1011B0009F6780E870E060E008959FEF80EC0895FD
:1011C00000240A9416161706180609060895002426
:1011D0000A9412161306140605060895092E0394A0
:1011E000000C11F4882352F0BB0F40F4BF2B11F414
:1011F00060FF04C06F5F7F4F8F4F9F4F089557FD73
:101200009058440F551F59F05F3F71F04795880F74
:1012100097FB991F61F09F3F79F08795089512160B
:1012200013061406551FF2CF4695F1DF08C01616B7
:1012300017061806991FF1CF869571056105089468
:101240000895E894BB2766277727CB0197F908957F
:101250000E943B090C94EE080E94E00838F00E94BE
:10126000E70820F0952311F00C94D7080C94DD08C2
:1012700011240C9422090E94FF0870F3959FC1F37A
:10128000950F50E0551F629FF001729FBB27F00D34
:10129000B11D639FAA27F00DB11DAA1F649F662789
:1012A000B00DA11D661F829F2227B00DA11D621FD8
:1012B000739FB00DA11D621F839FA00D611D221F92
:1012C000749F3327A00D611D231F849F600D211D76
:1012D000822F762F6A2F11249F5750409AF0F1F0F9
:1012E00088234AF0EE0FFF1FBB1F661F771F881F62
:1012F00091505040A9F79E3F510580F00C94D708BB
:101300000C9422095F3FE4F3983ED4F386957795D9
:101310006795B795F795E7959F5FC1F7FE2B880F07
:10132000911D9695879597F9089597FB072E16F4CA
:10133000009407D077FD09D00E94E00907FC05D092
:101340003EF4909581959F4F0895709561957F4FDC
:101350000895A1E21A2EAA1BBB1BFD010DC0AA1FF6
:10136000BB1FEE1FFF1FA217B307E407F50720F00E
:10137000A21BB30BE40BF50B661F771F881F991F89
:101380001A9469F760957095809590959B01AC01D2
:10139000BD01CF010895EE0FFF1F0590F491E02DE0
:1013A0000994A29FB001B39FC001A39F700D811D3E
:1013B0001124911DB29F700D811D1124911D08955E
:1013C000AA1BBB1B51E107C0AA1FBB1FA617B7076B
:1013D00010F0A61BB70B881F991F5A95A9F7809587
:1013E0009095BC01CD0108954532510520F442305D
:1013F00010F00C94FF09FB011082CB010895BB276C
:101400004A3031F4992322F4BDE2909581959F4FA3
:101410000C940B0ABB27FB015527AA27880F991F9D
:10142000AA1FA41710F0A41B83955051B9F7A05D13
:10143000AA3308F0A95DA193009779F7B111B19390
:101440001192CB010C94240ADC01FC01672F7191ED
:101450007723E1F7329704C07C916D93708362919A
:10146000AE17BF07C8F30895F999FECF92BD81BDAD
:10147000F89A992780B50895262FF999FECF1FBABB
:1014800092BD81BD20BD0FB6F894FA9AF99A0FBEAD
:0814900001960895F894FFCFC6
:1014980014003C0012010048656C6C6F2066726F86
:1014A8006D2041546D65676133323870202000002B
:00000001FF
